S0180000647574795F6379636C655F636F756E742E737265634F
S113000012C02CC02BC02AC029C028C027C026C0BB
S113001025C024C023C022C021C020C01FC01EC0D0
S11300201DC01CC01BC011241FBECFE5D4E0DEBF21
S1130030CDBF10E0A0E6B0E0E8E1F7E002C0059033
S11300400D92A637B107D9F720E0A6E7B0E001C0CA
S11300501D92A837B207E1F743D15CC3D1CF92B365
S11300609F70282F207F922B92BB92B312BA92B327
S1130070946092BB00C000C092B39B7F92BBE7EC3C
S1130080F0E03197F1F700C0000022B3F0E18F9F58
S1130090C0011124922F9F70892B82BB82B384608C
S11300A082BB00C000C082B38B7F82BB8FE097E22B
S11300B00197F1F700C00000089582E0D0DF88E2E4
S11300C0CEDF8DE0CCDF86E0CADF81E0C8DF8FE1E0
S11300D09EE40197F1F700C00000089592B39F7069
S11300E0282F207F922B92BB92B3926092BB92B343
S11300F0946092BB00C000C092B39B7F92BBE7ECBC
S1130100F0E03197F1F700C0000022B3F0E18F9FD7
S1130110C0011124922F9F70892B82BB82B384600B
S113012082BB00C000C082B38B7F82BB8FEC97E0A0
S11301300197F1F700C000000895EF92FF920F932A
S11301401F93CF93DF93EC016130710581F40BC0F1
S1130150C5DF219680917600909177000196909367
S113016077008093760088818111F2CF20C06230BD
S11301707105E9F4209176003091770088E290E0EF
S11301807C01E21AF30A00E010E004C080E2A6DF7A
S11301900F5F1F4F0E151F05CCF302C09FDF219682
S11301A088818111FBCF1092770010927600DF9145
S11301B0CF911F910F91FF90EF90089581E04FDF51
S11301C010927700109276000895CF93DF93FB018D
S11301D020E030E00CC0EF01C20FD31F6AE070E0F2
S11301E072D2805D8883862F972F2F5F3F4F18161A
S11301F019068CF3DF01A20FB31F1C92C9010197EA
S113020020E030E00DC0EF01C20FD31F4881DF01B1
S1130210A80FB91F5C9158834C932F5F3F4F0197F0
S11302202817390784F3DF91CF910895CF92DF9295
S1130230EF92FF92CF93DF931FBC1DBC1CBC90E2D6
S113024098BF91E49EBD08B605FEFDCFE6B5F7B5AF
S113025090E298BF91E09EBD08B605FEFDCF26B59D
S113026037B590E298BF91E49EBD08B605FEFDCF78
S113027046B557B590E298BF1EBCE217F30744F5A4
S1130280C901042E02C0880F991F0A94E2F7892B32
S1130290F9F0B9016E1B7F0BEA01CE1BDF0B072EB1
S11302A0000C880B990B20D16B017C01BE01DD0F82
S11302B0880B990B19D19B01AC01C701B60179D008
S11302C020E030E048EC52E49BD1DBD06B017C01B0
S11302D0C601DF91CF91FF90EF90DF90CF9008950A
S11302E0CF93DF93CDB7DEB72A970FB6F894DEBF6E
S11302F00FBECDBF8FEF81BB84B3806284BB82B35A
S11303008B7F82BB8FE097E20197F1F700C000007A
S1130310D4DE54DF61E070E080E690E00EDF1FBCC5
S1130320EE24E394F12C82DF8C01092E000CAA0B3D
S1130330BB0B80319105A105B10534F08F359105D2
S1130340A105B1052CF406C0EE24E394F12C02C0FF
S1130350E12CF12CC801012E000CAA0BBB0B409719
S1130360A109B1098F349105A105B10530F4E11457
S1130370F10419F485B315BA07C091E0E916F10444
S113038019F485B3806285BB19DFBE016F5F7F4FAF
S1130390C8011BDF61E070E0CE010196CEDE2FEFD5
S11303A083EC99E0215080409040E1F700C00000C8
S11303B0BACF0CD0EBC0E3D040F0DAD030F021F467
S11303C05F3F19F0CCC0511115C1CFC0F0D098F3E4
S11303D09923C9F35523B1F3951B550BBB27AA27C2
S11303E062177307840738F09F5F5F4F220F331F34
S11303F0441FAA1FA9F333D00E2E3AF0E0E830D000
S113040091505040E695001CCAF729D0FE2F27D002
S1130410660F771F881FBB1F261737074807AB07D0
S1130420B0E809F0BB0B802DBF01FF2793585F4F45
S11304302AF09E3F510568F092C0DCC05F3FECF3A8
S1130440983EDCF3869577956795B795F7959F5F0A
S1130450C9F7880F911D9695879597F90895E1E05E
S1130460660F771F881FBB1F621773078407BA07BD
S113047020F0621B730B840BBA0BEE1F88F7E09518
S1130480089504D06894B111B5C0089598D088F047
S11304909F5790F0B92F9927B751A0F0D1F0660F6C
S11304A0771F881F991F1AF0BA95C9F712C0B13087
S11304B081F09FD0B1E008959CC0672F782F8827E2
S11304C0B85F39F0B93FCCF3869577956795B395C6
S11304D0D9F73EF490958095709561957F4F8F4F35
S11304E09F4F0895E89409C097FB3EF4909580953A
S11304F0709561957F4F8F4F9F4F9923A9F0F92FE6
S113050096E9BB279395F695879577956795B79563
S1130510F111F8CFFAF4BB0F11F460FF1BC06F5F49
S11305207F4F8F4F9F4F16C0882311F096E911C05B
S1130530772321F09EE8872F762F05C0662371F07C
S113054096E8862F70E060E02AF09A95660F771F90
S1130550881FDAF7880F9695879597F9089597F984
S11305609F6780E870E060E008959FEF80EC089555
S113057000240A941616170618060906089500247E
S11305800A9412161306140605060895092E0394F8
S1130590000C11F4882352F0BB0F40F4BF2B11F46C
S11305A060FF04C06F5F7F4F8F4F9F4F089557FDCB
S11305B09058440F551F59F05F3F71F04795880FCD
S11305C097FB991F61F09F3F79F087950895121664
S11305D013061406551FF2CF4695F1DF08C0161610
S11305E017061806991FF1CF8695710561050894C1
S11305F00895E894BB2766277727CB0197F90895D8
S11306000BD0C4CFB5DF28F0BADF18F0952309F07A
S1130610A6CFABCF1124EECFCADFA0F3959FD1F3C1
S1130620950F50E0551F629FF001729FBB27F00D9C
S1130630B11D639FAA27F00DB11DAA1F649F6627F1
S1130640B00DA11D661F829F2227B00DA11D621F40
S1130650739FB00DA11D621F839FA00D611D221FFA
S1130660749F3327A00D611D231F849F600D211DDE
S1130670822F762F6A2F11249F5750408AF0E1F081
S113068088234AF0EE0FFF1FBB1F661F771F881FCA
S113069091505040A9F79E3F510570F060CFAACF0A
S11306A05F3FECF3983EDCF3869577956795B795B5
S11306B0F795E7959F5FC1F7FE2B880F911D9695DF
S11306C0879597F9089597FB072E16F4009406D0A2
S11306D077FD08D00BD007FC05D03EF490958195AA
S11306E09F4F0895709561957F4F0895AA1BBB1B7A
S11306F051E107C0AA1FBB1FA617B70710F0A61B1E
S1130700B70B881F991F5A95A9F780959095BC013E
S10B0710CD010895F894FFCF18
S113071877616974696E6720666F72207265737099
S10907286F6E7365000012
S9030000FC
