S0160000737572655F6C63645F776F726B732E7372656328
S113000012C024C023C022C021C020C01FC01EC0F3
S11300101DC01CC01BC01AC019C018C017C016C010
S113002015C014C013C011241FBECFE5D4E0DEBF39
S1130030CDBF10E0A0E6B0E0E6E4F1E002C0059038
S11300400D92AE36B107D9F775D07BC0D9CF98B32E
S11300509F70282F207F922B98BB98B39E7F98BBCC
S113006098B3926098BB000098B39D7F98BB32E42C
S11300703A95F1F700C028B330E1839FC001112401
S1130080922F9F70892B88BB88B3826088BB000045
S113009088B38D7F88BB83EF91E00197F1F700C0AF
S11300A00000089582E0D3DF88E2D1DF8CE0CFDF67
S11300B086E0CDDF81E0CBDF83EF91E00197F1F7BC
S11300C000C00000089598B39F70282F207F922BC2
S11300D098BB98B3916098BB98B3926098BB0000AA
S11300E098B39D7F98BB32E43A95F1F700C028B3EA
S11300F030E1839FC0011124922F9F70892B88BB0C
S113010088B3826088BB000088B38D7F88BB83EF8F
S113011091E00197F1F700C000000895CF93DF93B9
S1130120EC0102C0D0DF219688818111FBCFDF91E1
S1130130CF9108958FEF87BBB5DF80E690E0EEDFC7
S1090140FFCFF894FFCF8D
S111014648656C6C6F20576F726C642100006A
S9030000FC
