:1000000012C019C018C017C016C015C014C013C044
:1000100012C011C010C00FC00EC00DC00CC00BC06C
:100020000AC009C008C011241FBECFE5D4E0DEBF5E
:10003000CDBF02D028C0E4CF87B3826087BB8FB525
:10004000816C8FBD8EB58C608EBD80E00BC0282F7B
:1000500030E03BBD2ABDEFE7FEE33197F1F700C08A
:1000600000008F5F8F3F99F70BC0282F30E03BBD1A
:100070002ABDEFE7FEE33197F1F700C000008150A1
:0A008000823098F7E2CFF894FFCF2A
:00000001FF
