S01D00004C43445F4D795F696D706C656D656E746174696F6E2E73726563CA
S113000012C021C020C01FC01EC01DC01CC01BC008
S11300101AC019C018C017C016C015C014C013C028
S113002012C011C010C011241FBECFE5D4E0DEBF42
S1130030CDBF20E0A0E6B0E001C01D92A236B20719
S1130040E1F7FFD056C1DCCF92B39F70282F207FF9
S1130050922B92BB92B312BA92B3946092BB00C03B
S113006000C092B39B7F92BBE7ECF0E03197F1F7CD
S113007000C0000022B3F0E18F9FC0011124922F31
S11300809F70892B82BB82B3846082BB00C000C096
S113009082B38B7F82BB8FE097E20197F1F700C0B8
S11300A00000089582E090E0CFDF88E290E0CCDFAA
S11300B08DE090E0C9DF86E090E0C6DF81E090E06B
S11300C0C3DF8FE19EE40197F1F700C000000895BB
S11300D092B39F70282F207F922B92BB92B3926091
S11300E092BB92B3946092BB00C000C092B39B7F5A
S11300F092BBE7ECF0E03197F1F700C0000022B3C7
S1130100F0E18F9FC0011124922F9F70892B82BB35
S113011082B3846082BB00C000C082B38B7F82BB89
S11301208FEC97E00197F1F700C000000895EF927B
S1130130FF920F931F93CF93DF93EC01613071050E
S113014081F40BC0C5DF219680916000909161001D
S11301500196909361008093600088818111F2CFB1
S113016020C062307105E9F4209160003091610093
S113017088E290E07C01E21AF30A00E010E004C097
S113018080E2A6DF0F5F1F4F0E151F05CCF302C0E0
S11301909FDF219688818111FBCF1092610010921C
S11301A06000DF91CF911F910F91FF90EF90089520
S11301B081E04ADF1092610010926000089586B1D8
S11301C0806486B9349BFECF8DE08A95F1F70000F8
S11301D024B185B190E0982F8827820F911D08954E
S11301E0CF93DF93FB0120E030E00CC0EF01C20F9E
S11301F0D31F6AE070E056D0805D8883862F972FE6
S11302002F5F3F4F181619068CF3DF01A20FB31F9F
S11302101C92C901019720E030E00DC0EF01C20F2C
S1130220D31F4881DF01A80FB91F5C9158834C93F9
S11302302F5F3F4F01972817390784F3DF91CF9140
S11302400895CF93DF9300D000D01F92CDB7DEB7CF
S11302508FEF81BB84B3816084BB87B1856087B92C
S113026086B1806886B982B38B7F82BB8FE097E2C8
S11302700197F1F700C0000015DF9ADFA0DFBE018F
S11302806F5F7F4FADDF61E070E0CE0101964FDF1D
S11302909FE72AE186E0915020408040E1F700C0CA
S11302A00000EBCF97FB072E16F4009406D077FDE1
S11302B008D00BD007FC05D03EF4909581959F4F54
S11302C00895709561957F4F0895AA1BBB1B51E15A
S11302D007C0AA1FBB1FA617B70710F0A61BB70BB2
S11302E0881F991F5A95A9F780959095BC01CD0157
S10902F00895F894FFCF0D
S9030000FC
