:1000000012C02CC02BC02AC029C028C027C026C0BF
:1000100025C024C023C022C021C020C01FC01EC0D4
:100020001DC01CC01BC011241FBECFE5D4E0DEBF25
:10003000CDBF10E0A0E6B0E0E2E4F2E002C005903F
:100040000D92AE37B107D9F720E0AEE7B0E001C0BE
:100050001D92A038B207E1F7BDD0F1C0D1CF92B365
:100060009F70282F207F922B92BB92B312BA92B32B
:10007000946092BB00C000C092B39B7F92BBE7EC40
:10008000F0E03197F1F700C0000022B3F0E18F9F5C
:10009000C0011124922F9F70892B82BB82B3846090
:1000A00082BB00C000C082B38B7F82BB8FE097E22F
:1000B0000197F1F700C00000089582E090E0CFDFE3
:1000C00088E290E0CCDF8DE090E0C9DF86E090E050
:1000D000C6DF81E090E0C3DF8FE19EE40197F1F796
:1000E00000C00000089592B39F70282F207F922BAC
:1000F00092BB92B3926092BB92B3946092BB00C0E9
:1001000000C092B39B7F92BBE7ECF0E03197F1F730
:1001100000C0000022B3F0E18F9FC0011124922F94
:100120009F70892B82BB82B3846082BB00C000C0F9
:1001300082B38B7F82BB8FEC97E00197F1F700C011
:1001400000000895EF92FF920F931F93CF93DF93D8
:10015000EC016130710581F40BC0C5DF21968091FF
:100160007E0090917F00019690937F0080937E00A7
:1001700088818111F2CF20C062307105E9F42091AD
:100180007E0030917F0088E290E07C01E21AF30A61
:1001900000E010E004C080E2A6DF0F5F1F4F0E15E5
:1001A0001F05CCF302C09FDF219688818111FBCF10
:1001B00010927F0010927E00DF91CF911F910F91DE
:1001C000FF90EF90089581E04ADF10927F00109237
:1001D0007E0008958FEF81BB82B38B7F82BB8FE05F
:1001E00097E20197F1F700C0000067DF61E070E07F
:1001F00080E690E0A7DF62E070E086E690E0A2DFB4
:100200009FEF28E08DE3915020408040E1F700C04F
:100210000000D9DF61E070E08FE690E093DF62E0FC
:1002200070E089E790E08EDF9FEF28E08DE391504A
:1002300020408040E1F700C00000C5DFD7CFF89430
:02024000FFCFEE
:1002420068656C6C6F00576F726C64203A290054B9
:0E02520068697320697320610054657374003D
:00000001FF
