S01A000054686E746572727570745F74657374696E672E737265636D
S113000012C019C019C017C016C015C014C013C03F
S113001012C011C010C00FC00EC00DC00CC00BC068
S11300200AC009C008C011241FBECFE5D4E0DEBF5A
S1130030CDBF20D02BC0E4CF1F920F920FB60F92EA
S113004011242F938F939F9388B3826088BB2FEFE3
S113005089E698E1215080409040E1F700C000001B
S113006088B318BA9F918F912F910F900FBE0F9064
S11300701F90189581B311BA87B3826087BB8BB781
S113008080688BBF85B7886085BFFFCFF894FFCFAA
S9030000FC
