:1000000012C019C018C017C016C015C014C013C044
:1000100012C011C010C00FC00EC00DC00CC00BC06C
:100020000AC009C008C011241FBECFE5D4E0DEBF5E
:10003000CDBF2FD05FC2E4CFDC01CB01880F991F69
:10004000AA1FBB1F880F991FAA1FBB1F9C01AD01D0
:10005000220F331F441F551F220F331F441F551FEC
:1000600060E079E08DE390E023D28FEF820F89B9D1
:10007000DA01C9010197A109B109892F9A2FAB2F84
:10008000BB2780BD8AB188618AB980B5866880BD8A
:10009000089587B3826087BB81B3826881BB60E8C3
:1000A00075E280E090E0C8DF82B312BA1FBC88B767
:1000B000806288BF81E48EBD82B3806882BB2DE000
:1000C0002A95F1F7000082B312BA08B605FEFDCFFB
:1000D00026B537B588B7806288BF81E08EBD08B687
:1000E00005FEFDCF66B577B5621B730B76956795F8
:1000F0007695679580E090E0C6D028EA33E84AEB31
:100100005DE373D19B01AC0160E070E08FE793E4A5
:1001100025D06B017C0120E030E0A90184D01816C5
:1001200044F00F2EC12CD12CF0E8EF2EFFE3FF2E70
:10013000F02D8FB5816C8FBD8EB588608EBDC701E7
:10014000B60175D07BBD6ABD8FE798E321E0815091
:1001500090402040E1F700C00000A8CF5058BB27D6
:10016000AA270ED008C1F9D030F0FED020F031F42B
:100170009F3F11F41EF4EEC00EF4E095E7FBE4C0DF
:10018000E92F0AD180F3BA1762077307840795072E
:1001900018F071F49EF522C10EF4E0950B2EBA2FE3
:1001A000A02D0B01B90190010C01CA01A00111247D
:1001B000FF27591B99F0593F50F4503E68F11A1629
:1001C000F040A22F232F342F4427585FF3CF4695BA
:1001D00037952795A795F0405395C9F77EF41F16DC
:1001E000BA0B620B730B840BBAF09150A1F0FF0FA6
:1001F000BB1F661F771F881FC2F70EC0BA0F621F92
:10020000731F841F48F4879577956795B795F79581
:100210009E3F08F0B3CF9395880F08F09927EE0F13
:100220009795879508956CD008F481E00895BCD027
:1002300088F09F5790F0B92F9927B751A0F0D1F0CF
:10024000660F771F881F991F1AF0BA95C9F712C059
:10025000B13081F0C3D0B1E00895C0C0672F782FCE
:100260008827B85F39F0B93FCCF3869577956795C5
:10027000B395D9F73EF490958095709561957F4F31
:100280008F4F9F4F0895E89409C097FB3EF49095D7
:100290008095709561957F4F8F4F9F4F9923A9F05F
:1002A000F92F96E9BB279395F695879577956795EE
:1002B000B795F111F8CFFAF4BB0F11F460FF1BC032
:1002C0006F5F7F4F8F4F9F4F16C0882311F096E9C5
:1002D00011C0772321F09EE8872F762F05C0662373
:1002E00071F096E8862F70E060E02AF09A95660F2C
:1002F000771F881FDAF7880F9695879597F90895E5
:10030000990F0008550FAA0BE0E8FEEF1616170626
:10031000E807F907C0F012161306E407F50798F08E
:10032000621B730B840B950B39F40A2661F0232BA7
:10033000242B252B21F408950A2609F4A140A69523
:100340008FEF811D811D089597F99F6780E870E008
:1003500060E008959FEF80EC089500240A9416163B
:10036000170618060906089500240A9412161306A3
:10037000140605060895092E0394000C11F4882331
:1003800052F0BB0F40F4BF2B11F460FF04C06F5F4D
:100390007F4F8F4F9F4F089557FD9058440F551F23
:1003A00059F05F3F71F04795880F97FB991F61F0F7
:1003B0009F3F79F087950895121613061406551F6E
:1003C000F2CF4695F1DF08C0161617061806991FDA
:1003D000F1CF86957105610508940895E894BB27CF
:1003E00066277727CB0197F908950BD0C4CFB5DFE7
:1003F00028F0BADF18F0952309F0A6CFABCF11246F
:10040000EECFCADFA0F3959FD1F3950F50E0551FB3
:10041000629FF001729FBB27F00DB11D639FAA2759
:10042000F00DB11DAA1F649F6627B00DA11D661FA8
:10043000829F2227B00DA11D621F739FB00DA11DC9
:10044000621F839FA00D611D221F749F3327A00D83
:10045000611D231F849F600D211D822F762F6A2F1F
:1004600011249F5750408AF0E1F088234AF0EE0FA4
:10047000FF1FBB1F661F771F881F91505040A9F7B1
:100480009E3F510570F060CFAACF5F3FECF3983EDE
:10049000DCF3869577956795B795F795E7959F5F18
:1004A000C1F7FE2B880F911D9695879597F90895B2
:1004B000A1E21A2EAA1BBB1BFD010DC0AA1FBB1F68
:1004C000EE1FFF1FA217B307E407F50720F0A21BDA
:1004D000B30BE40BF50B661F771F881F991F1A9447
:1004E00069F760957095809590959B01AC01BD0171
:0804F000CF010895F894FFCF3D
:00000001FF
