S0150000746573745F31365F325F6C63642E7372656366
S113000012C024C023C022C021C020C01FC01EC0F3
S11300101DC01CC01BC01AC019C018C017C016C010
S113002015C014C013C011241FBECFE5D4E0DEBF39
S1130030CDBF10E0A0E6B0E0E4E1F1E002C005903D
S11300400D92AC37B107D9F757D062C0D9CF88BB6E
S113005085B38E7F85BB85B38D7F85BB85B3846077
S113006085BB00C000C085B38B7F85BB87EB9BE05D
S11300700197F1F700C00000089588BB85B3816043
S113008085BB85B38D7F85BB85B3846085BB00C08C
S113009000C085B38B7F85BB87EE93E00197F1F7B2
S11300A000C0000008958FEF84BB87BB8FE19EE4FE
S11300B00197F1F700C0000088E3C9DF8CE0C7DFD7
S11300C086E0C5DF81E0C3DF80E8C1DF08950F93D8
S11300D01F93CF93DF938C01C0E0D0E002C0CDDF4B
S11300E02196F801EC0FFD1F80818111F8CFDF917B
S11300F0CF911F910F910895D6DF80E690E0E7DF5E
S113010080ECA5DF80E790E0E2DF80E090E00895F6
S1070110F894FFCF8D
S1130114456C656374726F6E696357494E47530047
S10F012448656C6C6F20576F726C6400AF
S9030000FC
