S00D000055736172742E7372656308
S113000012C024C023C022C021C020C01FC01EC0F3
S11300101DC01CC01BC01AC019C018C017C016C010
S113002015C014C013C011241FBECFE5D4E0DEBF39
S1130030CDBF10E0A0E6B0E0EEEAF1E002C005902A
S11300400D92AA36B107D9F74ED0AFC0D9CFDC0193
S1130050CB01880F991FAA1FBB1F880F991FAA1FC6
S1130060BB1F9C01AD01220F331F441F551F220FDC
S1130070331F441F551F60E079E08DE390E073D097
S11300808FEF820F89B9DA01C9010197A109B1097A
S1130090892F9A2FAB2FBB2780BD8AB188618AB97B
S11300A080B5866880BD08955D9BFECF8CB90895A8
S11300B00F931F93CF93DF938C01C0E0D0E008C06F
S11300C0F3DF8FEC97E00197F1F700C00000219671
S11300D0F801EC0FFD1F80818111F2CFDF91CF91E8
S11300E01F910F910895CF93DF93CDB7DEB72A9771
S11300F00FB6F894DEBF0FBECDBF81B511BC81B37E
S1130100826081BB84B3806284BB86E0E0E6F0E079
S11301108E010F5F1F4FD80101900D928A95E1F770
S1130120FE01379684E0DF011D928A95E9F760E8C5
S113013075E280E090E08BDFF80101900020E9F7A0
S113014031978DE09AE0918380831282CE010196EB
S1130150AFDFBFEF24E38CE0B15020408040E1F7F3
S113016000C00000F3CFA1E21A2EAA1BBB1BFD01A5
S11301700DC0AA1FBB1FEE1FFF1FA217B307E40782
S1130180F50720F0A21BB30BE40BF50B661F771FDA
S1130190881F991F1A9469F76095709580959095BA
S11101A09B01AC01BD01CF010895F894FFCF7F
S10D01AE48656C6C6F00000000004F
S9030000FC
