:1000000012C019C018C017C016C015C014C013C044
:1000100012C011C010C00FC00EC00DC00CC00BC06C
:100020000AC009C008C011241FBECFE5D4E0DEBF5E
:10003000CDBF9AD046C2E4CFDC01CB01880F991F17
:10004000AA1FBB1F880F991FAA1FBB1F9C01AD01D0
:10005000220F331F441F551F220F331F441F551FEC
:1000600060E079E08DE390E0F6D18FEF820F89B9FF
:10007000DA01C9010197A109B109892F9A2FAB2F84
:10008000BB2780BD8AB188618AB980B5866880BD8A
:1000900008955D9BFECF8CB908950F931F93CF9366
:1000A000DF938C01C0E0D0E008C0F3DF8FEC97E075
:1000B0000197F1F700C000002196F801EC0FFD1F39
:1000C00080818111F2CFDF91CF911F910F9108951F
:1000D00014BA87E886B980E487B9089597B18F701C
:1000E000982B97B986B1806486B9349BFECF8DE09A
:1000F0008A95F1F7000024B185B190E0982F882708
:10010000820F911D0895CF93DF93FB0120E030E033
:100110000CC0EF01C20FD31F6AE070E089D1805D8F
:100120008883862F972F2F5F3F4F181619068CF361
:10013000DF01A20FB31F1C92C901019720E030E03C
:100140000DC0EF01C20FD31F4881DF01A80FB91FF7
:100150005C9158834C932F5F3F4F019728173907C5
:1001600084F3DF91CF910895CF93DF93CDB7DEB7BE
:100170002A970FB6F894DEBF0FBECDBF81B511BC74
:1001800081B3826081BB84B3806284BBA1DF60E8FD
:1001900075E280E090E050DF85E0A0DFBC01990FC0
:1001A000880B990B56D020ED3FE34FE75EE3B5D0C7
:1001B0001DD0DC01CB018E010F5F1F4FB801A3DF03
:1001C000F80101900020E9F731978DE09AE09183E2
:1001D00080831282C80161DF2FEF84E39CE021500D
:1001E00080409040E1F700C00000D6CF04D0689472
:1001F000B1118DC0089570D088F09F5790F0B92F3D
:100200009927B751A0F0D1F0660F771F881F991F6B
:100210001AF0BA95C9F712C0B13081F077D0B1E0C9
:10022000089574C0672F782F8827B85F39F0B93FD9
:10023000CCF3869577956795B395D9F73EF490956D
:100240008095709561957F4F8F4F9F4F0895E894EB
:1002500009C097FB3EF490958095709561957F4F0E
:100260008F4F9F4F9923A9F0F92F96E9BB279395BC
:10027000F695879577956795B795F111F8CFFAF4CC
:10028000BB0F11F460FF1BC06F5F7F4F8F4F9F4FFD
:1002900016C0882311F096E911C0772321F09EE85B
:1002A000872F762F05C0662371F096E8862F70E0C1
:1002B00060E02AF09A95660F771F881FDAF7880F9B
:1002C0009695879597F9089557FD9058440F551FB7
:1002D00059F05F3F71F04795880F97FB991F61F0C8
:1002E0009F3F79F087950895121613061406551F3F
:1002F000F2CF4695F1DF08C0161617061806991FAB
:10030000F1CF86957105610508940895E894BB279F
:1003100066277727CB0197F908950BD078C069D06D
:1003200028F06ED018F0952309F05AC05FC0112450
:10033000EECFCADFA0F3959FD1F3950F50E0551F84
:10034000629FF001729FBB27F00DB11D639FAA272A
:10035000F00DB11DAA1F649F6627B00DA11D661F79
:10036000829F2227B00DA11D621F739FB00DA11D9A
:10037000621F839FA00D611D221F749F3327A00D54
:10038000611D231F849F600D211D822F762F6A2FF0
:1003900011249F5750408AF0E1F088234AF0EE0F75
:1003A000FF1FBB1F661F771F881F91505040A9F782
:1003B0009E3F510570F014C0AACF5F3FECF3983E0A
:1003C000DCF3869577956795B795F795E7959F5FE9
:1003D000C1F7FE2B880F911D9695879597F9089583
:1003E00097F99F6780E870E060E008959FEF80ECE8
:1003F000089500240A94161617061806090608958B
:1004000000240A9412161306140605060895092EF0
:100410000394000C11F4882352F0BB0F40F4BF2B5F
:1004200011F460FF04C06F5F7F4F8F4F9F4F08959F
:1004300097FB072E16F4009406D077FD08D02DD038
:1004400007FC05D03EF4909581959F4F08957095D7
:1004500061957F4F0895A1E21A2EAA1BBB1BFD01D7
:100460000DC0AA1FBB1FEE1FFF1FA217B307E40793
:10047000F50720F0A21BB30BE40BF50B661F771FEB
:10048000881F991F1A9469F76095709580959095CB
:100490009B01AC01BD01CF010895AA1BBB1B51E11B
:1004A00007C0AA1FBB1FA617B70710F0A61BB70BE4
:1004B000881F991F5A95A9F780959095BC01CD0189
:0604C0000895F894FFCF3F
:00000001FF
