S00D000055736172742E7372656308
S113000012C019C018C017C016C015C014C013C040
S113001012C011C010C00FC00EC00DC00CC00BC068
S11300200AC009C008C011241FBECFE5D4E0DEBF5A
S1130030CDBF37D07AC0E4CFDC01CB01880F991F44
S1130040AA1FBB1F880F991FAA1FBB1F9C01AD01CC
S1130050220F331F441F551F220F331F441F551FE8
S113006060E079E08DE390E03ED08FEF820F89B9B4
S1130070DA01C9010197A109B109892F9A2FAB2F80
S1130080BB2780BD8AB188618AB980B5866880BD86
S113009008955F9BFECF8CB108955D9BFECF8CB914
S11300A0089581B3826081BB81B311BA87B3816043
S11300B087BB60E875E280E090E0BEDF88B38160D2
S11300C088BBE7DFC82F8823E1F3E7DFC13321F4DE
S11300D098B381E0892788BB8FE097E20197F1F715
S11300E000C00000EECFA1E21A2EAA1BBB1BFD012B
S11300F00DC0AA1FBB1FEE1FFF1FA217B307E40703
S1130100F50720F0A21BB30BE40BF50B661F771F5A
S1130110881F991F1A9469F760957095809590953A
S11101209B01AC01BD01CF010895F894FFCFFF
S9030000FC
