:1000000012C019C018C017C016C015C014C013C044
:1000100012C011C010C00FC00EC00DC00CC00BC06C
:100020000AC009C008C011241FBECFE5D4E0DEBF5E
:10003000CDBF3AD059C0E4CF87B38F6287BB81E58B
:100040008DB9089588B318BA089588B3846088BBC1
:1000500008958FB9779BFECF089588B318BA2FEF14
:1000600080E792E0215080409040E1F700C000001E
:1000700088B3816088BB0895CF93C82F88B318BA1E
:10008000E1DF8C2FE6DF88B3826088BBDEDFCF91B3
:100090000895CF93C82F88B3826088BBD3DF8C2F9D
:1000A000D8DFD3DFCF910895C7DFD7DF81E2E4DF68
:1000B00080ECE2DF80E2E0DF80ECDEDF8FE1E9DF91
:1000C00085E0E7DF87E0E5DF80E0E3DF8FE1E1DF88
:1000D00080E0DFDF2FEF81E19AE721508040904000
:0C00E000E1F700C00000E1CFF894FFCF72
:00000001FF
