S01100004A6F795F737469636B2E7372656364
S113000012C024C023C022C021C020C01FC01EC0F3
S11300101DC01CC01BC01AC019C018C017C016C010
S113002015C014C013C011241FBECFE5D4E0DEBF39
S1130030CDBF10E0A0E6B0E0E2E5F1E002C005903B
S11300400D92A436B107D9F745D081C0D9CFDC01D0
S1130050CB01880F991FAA1FBB1F880F991FAA1FC6
S1130060BB1F9C01AD01220F331F441F551F220FDC
S1130070331F441F551F60E079E08DE390E045D0C5
S11300808FEF820F89B9DA01C9010197A109B1097A
S1130090892F9A2FAB2FBB2780BD8AB188618AB97B
S11300A080B5866880BD08955D9BFECF8CB90895A8
S11300B00F931F93CF938C01C0E002C0F5DFCF5F95
S11300C0F801EC0FF11D80818111F8CFCF911F91C0
S11300D00F91089581B3826081BB87B3816087BB30
S11300E060E875E280E090E0B2DF86B1806886B9AE
S11300F080E690E0DDDF2FEF84E39CE02150804038
S11301009040E1F700C00000F3CFA1E21A2EAA1B31
S1130110BB1BFD010DC0AA1FBB1FEE1FFF1FA217B3
S1130120B307E407F50720F0A21BB30BE40BF50BB0
S1130130661F771F881F991F1A9469F76095709539
S1130140809590959B01AC01BD01CF010895F89471
S1050150FFCFDB
S107015248650000F8
S9030000FC
