:100000000C9434000C943E000C943E000C943E0082
:100010000C943E000C943E000C943E000C943E0068
:100020000C943E000C943E000C943E000C943E0058
:100030000C943E000C943E000C943E000C943E0048
:100040000C943E000C943E000C943E000C943E0038
:100050000C943E000C943E000C943E000C943E0028
:100060000C943E000C943E0011241FBECFEFD8E04C
:10007000DEBFCDBF0E9440000C9458000C940000DD
:100080008FEF84B915B82FEF84E39CE021508040B6
:100090009040E1F700C0000082E085B92FEF84E3D3
:1000A0009CE0215080409040E1F700C00000EACF82
:0400B000F894FFCFF2
:00000001FF
